:10000000004000026F010000390100003B010000C8
:100010003D0100003F010000410100000000000020
:10002000000000000000000000000000430100008C
:1000300045010000000000007D0D0000C90900001E
:100040004B0100004B0100004B0100004B01000080
:10005000ED0300004B0100004B0100004B010000CC
:100060004B0100004B0100004B0100004B01000060
:100070004B0100004B0100004B0100004B01000050
:100080004B0100004B0100004B0100004B01000040
:100090004B0100004B0100004B0100004B01000030
:1000A000850400004B0100004B0100004B010000E3
:1000B000310A00004B0100004B0100004B01000021
:1000C0004B0100004B0100004B0100004B01000000
:1000D0004B0100004B0100004B0100004B010000F0
:1000E0004B0100004B0100004B0100004B010000E0
:1000F0004B0100004B0100004B01000048100000C4
:10010000000000027C0000004810000000400002D7
:100110000000000048100000008000020000000005
:1001200000020002140B000000400002000000006A
:100130000080000200000000FEE7FEE7FEE7FEE7A9
:10014000FEE7FEE7FEE7FEE7FEE7FEE7002310B569
:10015000934200D310BD1C585C500433F8E70023D1
:100160001A468B4200D370471A500433F9E738B56A
:100170000C4C0D4DAC4205D30C4DAC420AD300F0F3
:10018000A9FEFEE7D4E900010C3454F8042CFFF773
:10019000DDFFEFE754F8080B54F8041CFFF7DFFF0E
:1001A000EBE700BFFC000000200100003801000068
:1001B000022310B5104C114AC4E90433104BA2615C
:1001C000E3614FF48063A2640E4A2362E264002379
:1001D00010220D49E01DA3626362E362A3656365BB
:1001E000E365226500F078FE0849204600F074FEC1
:1001F0002023A37110BD00BF60060002800F000025
:100200001002000200020002890F00008D0F0000A2
:10021000FFF7CEBF032A04BF0022034B4FF00000BC
:1002200008BF83F8492070471006000238B5104611
:100230001C461BB3CB78022B14D0032B04D0012B0C
:100240000F4818BF002038BD0E4D0168224605F149
:10025000270000F03BFE012385F8484085F84A302E
:100260000020F0E7074D01682246E81D00F02EFE51
:10027000012385F8474085F84B30F1E71846E2E75F
:100280000300040010060002C97810B5022911D03D
:10029000032915D001290BD10D480E4904780431EA
:1002A0000C70447880784C708870116003221A803A
:1002B000002010BD0749C81D106091F84720F6E7DF
:1002C000044901F12700106091F84820EFE700BFD2
:1002D000D806000210060002F0B5054691B0174698
:1002E0001E460C4600292FD04B79032B2CD13822E7
:1002F000002102A800F0ECFD01238DF810303B68CE
:10030000059402933368CDF818D00393104B02A9DB
:100310000793104B284608930F4B0C930F4B1B88E9
:10032000ADF8003000238DF802300D4B01930D4BDA
:100330001B681B695B689847029B3B60039B3360AB
:10034000094B1D6011B0F0BD4FF0FF30FAE700BF60
:10035000890200002D02000015020000940F000029
:10036000960F0000B80B000210060002014B93F834
:100370004B0070471006000210B5064C94F8472059
:100380008A4228BF0A46E11D00F0A0FD002384F840
:100390004B3010BD1006000210B4114A106890F8DE
:1003A000ED30B3B192F84930BBB90E4B0432197835
:1003B000117059789B7851709370012382F8453001
:1003C000094B81211B681B681C6D0323A44610BCCC
:1003D000604782F84930A2F84A3010BC704700BF2D
:1003E00010060002D8060002B80B00022DE9F843FF
:1003F0004FF000480E4BDFF83C909E6D1D6E1F6C59
:1004000046EA0504B4FA84F3202B0BD028FA03F251
:10041000C3F11F0359F8233024EA0204002BF1D062
:100420009847EFE7024B1F649E651D66BDE8F883A1
:100430000040001C2009000230B501259DF80C4049
:1004400005604568ED07FCD5456815F00E0F0CD129
:10045000012C12780AD152B908254A800D8044EA4D
:1004600043040223E4B28462036230BD2AB1022451
:10047000D2000C804A800024F1E704244A800C80DA
:100480001446ECE7A64BF7B51868A64942680C7904
:1004900012F0100F4E790B461AD0CA7904EB84057E
:1004A0000132D2B2CA71A04929440979914237BFB9
:1004B0009E4A022202EBC40251883EBF41F4806191
:1004C00051800322102100254160022A7DD166E07F
:1004D00012F0400516D0CA7904EB84050132D2B27D
:1004E000CA71914929440979914237BF8F4A022242
:1004F00002EBC40251883EBF41F480615180032267
:100500004021E0E7D70709D50F8802F00E02042F3B
:1005100000F0D98004D8022F00F0A78003B0F0BD0E
:10052000082F10D0102FF9D11423814A03FB06267F
:10053000B37B5B0043F00103DBB2836202230362FF
:1005400008230B80EAE7022A1ED11421784A01FB16
:1005500006218D891DB1876A5D8849684F5514252C
:1005600005FB062259889289013191424FF001051D
:10057000B7BF082203221A802A46BCBF05620025A5
:10058000012A5980CAD0A0E7CA7904EB8407013256
:10059000D2B2CA7164493944097991420ED3142305
:1005A000634A04EB840403FB0626337C614A009310
:1005B000B37B22445B49FFF73FFFAFE75B4A02EBA7
:1005C000C402518841F0080151804268D207FCD52D
:1005D000042202629A79554F002A00F09B80013A6A
:1005E000D2B29A71002A00F095804FF0140C59791C
:1005F0004F4A013101F00F0159710CFB01214FF0FD
:10060000000CCA7B83F807C01A7137F8323007EB49
:10061000C20C013B9BB243619CF804309CF805C0BE
:100620001B0103F070030CF0070C43EA0C03436258
:100630000B7C02EB820200938B7B3E490A443949D2
:10064000FFF7FAFE07EBC404A379013BA371002D69
:100650003FF464AF14235E43354B9B59002B3FF4AA
:100660005DAF03B0BDE8F0401847042A18D114214B
:100670002F4A01FB06210A7A8262012202625A880D
:10068000083A92B25A80002A7FF448AF8A89002A39
:100690003ED00A7C12B910221A803FE70422FBE701
:1006A000CA7904EB84070132D2B2CA711E493944B7
:1006B00009799142BFF473AF1C4A02EBC40251881E
:1006C00041F0020180E7042A0FD11425184F4A880F
:1006D00005FB0675AF8997421AD96B689B5C8362EC
:1006E00001231A4403624A8018E7CA7904EB84079D
:1006F0000132D2B2CA710C49394409799142BFF42E
:100700004EAF0A4A02EBC402518841F004015BE794
:1007100001255AE700221A800123C36092E700BF37
:100720002400000268090002421000007209000261
:100730007C0900024410000009480A4B41681A88ED
:10074000C1F30A0191421A460CBF00230368064810
:1007500018BFC3F30073DBB203701180704700BF92
:1007600000C0001CF40A0002FC0B00027047FFFFEF
:100770001A4A00EB80001318125C4FF0E050510948
:1007800001F5046150F8211002F01F02D140987861
:100790001A7901F00101514048B9DA788A4201D151
:1007A000002070470A225A7001229A707047D87848
:1007B0005A78884209D0013A52B2002A5A70EFDCC6
:1007C0000022D9709A7001207047013252B2092A72
:1007D0005A70E5DD00209870704700BF3F000002AE
:1007E00070B501250B24084EE0B2FFF7C1FF04EB02
:1007F00084033344DB7814F1FF3443EA4505F3D234
:10080000024B1D6070BD00BF3F000002000C0002E3
:1008100030B500234FF6FF74074A1360546004F1AB
:10082000E0540934994202DC906880B230BDC55C66
:1008300001332570F6E700BF0000011C30B50C4DF8
:1008400089B017212846FFF7E3FF044629461722FF
:1008500001A800F03BFB8DF81B401922240A01A9D6
:1008600000208DF81C4000F007FA09B030BD00BF31
:100870002800000200B589B0192201A9002000F06B
:100880001FFA80B1172101A8FFF7C2FF9DF81C20B5
:100890009DF81B3043EA0223984204D1172201A994
:1008A000024800F013FB09B05DF804FB28000002C9
:1008B000074B9A7D074B32B14FF4B4725A60064B26
:1008C00004221A6070474FF498725A60034BF7E79E
:1008D0002800000200800F408022001C0022001C23
:1008E0002DE9F0413149324E084600250F46B64603
:1008F000DFF8D080DFF8BCC0847814F0010315D095
:10090000630748D5037803EB83036344DA784378BD
:10091000A2EBC21203EB83036344DB787F32C3EBA9
:10092000C3131344220648BFC3F1FF0306F8013B7B
:10093000033075B3002307201E4C4A7D5B00D507AA
:10094000DBB205D50A7D02EB82022244D278134342
:100950000138421CA1F10201EFD18EF80230164B92
:10096000164A1B6813F0100F1CD113680133642B57
:10097000136008D1BB7DB3FA83F35B09BB75FFF746
:1009800097FFFFF75BFF0E4A136801331360BDE862
:10099000F0810125B0E738F81530C3F3071383F071
:1009A0008003BFE700231360EDE700BF28000002CB
:1009B000D80600023F0000020021001CE40A0002E9
:1009C000DC0A0002EA0A000210B50021134800F018
:1009D000A3F90A23124C2268B2FBF3F103FB1121A5
:1009E00011B9104800F098F964232268B2FBF3F1C2
:1009F00003FB112111B90C4800F08EF94FF47A7302
:100A00002268B2FBF3F103FB112111B9074800F092
:100A100083F923680133236010BD00BFE1070000A4
:100A2000F00A0002E1080000390700006D0700002D
:100A3000034B044A1B6810681B68DB68184700BF3B
:100A4000B80B00025C06000270B596B000F0B8F971
:100A500000F010F9FFF7DCFB0C2000226D4B6E4D0F
:100A600098606E4B2A604FF490711A605A604FF490
:100A700098736B4C236061604FF4A461A160E160E6
:100A80004FF4947123616361A361E3612362636244
:100A9000A362E36223636163A1634FF48461E36350
:100AA00023646364A1643021E16421656165A2650A
:100AB000E26521666366A366E16623676367A367F1
:100AC000E367584B4FF6FF7118605A609A604FF019
:100AD000FF32554B1A605A609A60DA601A615A61A7
:100AE0009A61DA611A625A629A62DA621A635A6326
:100AF0009A63D963C3F8C02102F58002C3F8C42108
:100B0000FFF7B8FEFFF7D4FE2B6803F40053002B69
:100B100014BF01220022454B1A7016BF4FF4907289
:100B20004FF498720123626308BF0023A2634FF061
:100B300008026DD03E490A603E4A3F4DD37353745C
:100B4000D37453753D4B3E4A1B6800211B6805A8B2
:100B50002B60D2F808323B4E23F40073C2F80832FF
:100B6000442200F0B5F9384B384A059303238DF839
:100B700020304FF48053CDE90623354B354C00939C
:100B8000354BCDE902660193002304932B6805AA37
:100B90001B6869465B682046984788B907AB06AA78
:100BA00006F109012068FFF797FB48B94FF0805222
:100BB0002A4B01211A602B6820681B689B689847A4
:100BC00000F0A2F80022264B264C83F8232000F0E8
:100BD00071F9254B254D1A6842F001021A601A6816
:100BE00042F002021A60FFF7D7FBFFF7BFFB68B1C4
:100BF00023685A1C226003B972B620212846FFF7E9
:100C0000BBFB2368013B236003B962B630BFEAE750
:100C1000174990E700400B400021001C0421001CF4
:100C200000800F400020001C00800340E00A00020A
:100C30008022001C28000002B80B00020002000302
:100C4000004007400000000200C0001C00800002BD
:100C5000DC0F00005C060002EE0F000000E100E087
:100C600000ED00E0040C000210E000E0BC0A00020D
:100C70000022001C7047FFFF3D2310B50D4C8AB0C9
:100C8000CDE907122268CDE905300B4B511C0993C1
:100C9000216002B972B6094B01A905A898472368DB
:100CA000013B236003B962B60198B0FA80F04009B5
:100CB0000AB010BD040C0002401901000502000337
:100CC0003E2310B50D4C8AB0CDE907122268CDE95C
:100CD00005300B4B511C0993216002B972B6094BC8
:100CE00001A905A898472368013B236003B962B6B0
:100CF0000198B0FA80F040090AB010BD040C00025F
:100D00004019010005020003C022024B83F8222093
:100D1000704700BF00ED00E0F0B5144B144E1B7897
:100D20003468DAB2651C356004B972B68423534363
:100D3000104CE71897F88020D2B20F2A14DC551C0B
:100D400003EBC203EDB287F88050E0500120E218B7
:100D50005160094A536843F0805353603368013B44
:100D6000336003B962B6F0BD0020F7E7080C00025B
:100D7000040C00020C0C000200ED00E0F8B5842326
:100D80000D49002408780A784343B2FA82F21D46DE
:100D90000A4E52090A70F21892F8807082F8804068
:100DA000FFB2BC4200DBF8BD05EBC403F218F358F8
:100DB000506898470134F4E7080C00020C0C00025C
:100DC0000121394BD3F8082222F40012C3F808227B
:100DD000C3F8C010D3F8242142F40052C3F82421F0
:100DE000C3F8A010D3F8082242F48002C3F8082206
:100DF0004522C3F89821D3F8082222F48002C3F8D0
:100E000008224FF4807200BF013AFCD1D3F89C2134
:100E1000D007FBD50222C3F884200122C3F8A42006
:100E20004322C3F8A021D3F8082222F40002C3F819
:100E300008221D4A1346D2F8A411C907FBD5012187
:100E4000C2F8A8104521C2F8A811D2F8081221F062
:100E50008071C2F80812D3F8AC21D207FBD5022268
:100E60000321C3F88820C3F88C10C3F8982001220E
:100E7000C3F8CC20C3F8D020C3F8D820C3F8D420BE
:100E8000C3F8EC20C3F8F020C3F8F820D3F8C4105E
:100E9000064A0A43C3F8C420D3F8C810044A0A43D8
:100EA000C3F8C820704700BF004007401BFA350850
:100EB00002228200034B1A6842F004021A60024ABE
:100EC0005A60704710E000E03F19010000F025B8BB
:100ED00000F03DB8FFF7B8BD40EA01039B0710B52D
:100EE00013D10246043951F8043FA3F1013424EA36
:100EF000030414F0803F05D0D9B202F8011B59B1A8
:100F00001B12F9E742F8043BEDE7421E11F8013BE2
:100F100002F8013F002BF9D110BD40EA0103DB07C5
:100F200003460CD40346043A22BF51F804CB43F8DD
:100F300004CBB2F10402F7D2043208BF7047013A81
:100F400024BF11F801CB03F801CBF8D87047034652
:100F500013F0030F0ED101F0FF0141EA012141EA34
:100F60000141043A24BF43F8041BB2F10402F9D250
:100F700002F10402013A24BF03F8011BFAE77047AB
:100F80005465726D696E616C00525454005345474C
:100F900047455200440005010904A101A1000930A0
:100FA000093175089502150025FF350045FF8102BE
:100FB0000509190129081500250175019508810207
:100FC0000903150025FF75089520910209031500F6
:100FD00025FF75089520B102C0C0FFFF1201100166
:100FE00000000040591C24002100010200010403FC
:100FF000090428032000540048004500430036003F
:10100000340020004A006F0079007300740069000A
:1010100063006B0020002000200028032000540003
:101020004800450043003600340020004A006F00AD
:10103000790073007400690063006B0020002000D9
:081040002000003C010003FF49
:101048000902220001010080FA09040000010300DE
:10105800000009211001210122440007058103082D
:10106800000A00FF000005400A0B050809050001F9
:10107800010102010301040105010601070100182D
:101088000000000101000000010000000001000054
:101098000000010D000000010E0000000116000014
:1010A8000001170000000119000000011A000000EB
:0C10B800011B000000011C00000001FFF3
:040000030000016F89
:00000001FF
